:020000040800F2
:100000001082002059020008610200086302000803
:10001000650200086702000869020008000000008D
:100020000000000000000000000000006B0200085B
:100030006D020008000000001505000869050008B1
:1000400073020008730200087302000873020008BC
:1000500073020008730200087302000873020008AC
:10006000730200087302000873020008730200089C
:10007000730200087302000873020008730200088C
:1000800073020008730200086D0400087302000880
:10009000730200087302000873020008730200086C
:1000A000D5060008E1070008730200087302000883
:1000B000190800082D0800083D0800087302000810
:1000C000730200087302000873020008730200083C
:1000D000730200088D0800089D080008AD0800089C
:1000E000730200087302000873020008730200081C
:1000F00073020008730200086D080008730200080C
:1001000073020008730200084D080008730200081B
:100110007D08000873020008730200085D080008EB
:1001200073020008950400087302000873020008B7
:1001300073020008730200087302000873020008CB
:10014000730200087302000873020008FD0400082F
:10015000730200087302000873020008BD0800085B
:10016000730200087302000873020008730200089B
:10017000730200087302000873020008730200088B
:10018000730200087302000800F002F800F03EF865
:100190000AA090E8000C82448344AAF10107DA45E2
:1001A00001D100F033F8AFF2090EBAE80F0013F0F6
:1001B000010F18BFFB1A43F0010318478017000016
:1001C000A0170000103A24BF78C878C1FAD85207A7
:1001D00024BF30C830C144BF04680C6070470000C1
:1001E0000023002400250026103A28BF78C1FBD840
:1001F000520728BF30C148BF0B6070471FB501F0E0
:1002000036FB00F07FF81FBD10B510BD00F0E2F81E
:100210001146FFF7F3FF01F0FDFA00F000F903B417
:10022000FFF7F2FF03BC00F07FF80000EFF3088057
:1002300020E9F00F80F308882DED200AEFF3088005
:10024000704780F30888BDEC200AEFF30880B0E81F
:10025000F00F80F308887047094880470948004735
:10026000FEE7FEE7FEE7FEE7FEE7FEE7FEE7FEE766
:10027000FEE7FEE704480549054A064B70470000C3
:10028000A505000889010008100200201082002046
:100290001042002010420020002000F04BF8FFF731
:1002A000B3FF012000F040F802F0FF0343EA03220D
:1002B00042EA024200F002B84FF000020429C0F006
:1002C000128010F0030C00F03E80CCF1040CBCF165
:1002D000020F18BF00F8012BA8BF20F8022BA1EBDA
:1002E0000C0100F030B85FEAC17C24BF00F8012B9C
:1002F00000F8012B48BF00F8012B7047704770478A
:100300007047000070B5064C7C44064D7D4403E008
:10031000206820448047241DAC42F9D170BD000004
:10032000501600005016000001491820ABBEFEE731
:100330002600020010B500F035F8BDE8104000F0CE
:100340002CB84FF0000200B513469446964620396B
:1003500022BFA0E80C50A0E80C50B1F12001BFF47E
:10036000F7AF090728BFA0E80C5048BF0CC05DF8E4
:1003700004EB890028BF40F8042B08BF704748BF32
:1003800020F8022B11F0804F18BF00F8012B7047A6
:1003900000487047B00100207047002801D0FFF7E7
:1003A000C3BF704710B5002102A000F03EF8012045
:1003B00010BD0000534947414252543A2041626EF9
:1003C0006F726D616C207465726D696E6174696FB6
:1003D0006E0000007546FFF7DBFFAE46050069467C
:1003E000534620F00700854618B020B5FFF742FFBE
:1003F000BDE820404FF000064FF000074FF0000826
:100400004FF0000B21F00701AC46ACE8C009ACE8A6
:10041000C009ACE8C009ACE8C0098D467047044685
:10042000AFF300802046FFF7FAFE70B505460C4694
:100430000A2000E06D1C00F011F835B12878002882
:10044000F8D102E0641C00F009F814B1207800280B
:10045000F8D1BDE870400A20AFF3008008B56946C6
:100460008DF800000320ABBE08BD000010B50748A2
:10047000006820F00200054908600548006800682F
:10048000016903480068884710BD00000020014052
:100490001000002010B50C48006801690A48006887
:1004A000083001F0A5F80948006840F400600749E9
:1004B00008600748006820F0010005490860002036
:1004C00002492031086010BD7C0000200864024011
:1004D0000004014010B5002102480068143000F00B
:1004E00072FB10BD7C00002010B50021024800689E
:1004F0002C3000F068FB10BD7C00002010B500F02F
:10050000A1FC0348006800F059FE00F08BFC10BD10
:100510005400002010B5FFF789FE0749086000214C
:1005200005480068054A1268904703490860084674
:100530000068FFF786FE10BD5C000020040000206C
:1005400010B5012102480068143000F03CFB10BDDA
:100550007C00002010B50121024800682C3000F01A
:1005600032FB10BD7C00002010B5FFF75FFE0A498A
:1005700008600A480068401C0849086001210648D4
:100580000068074A126890470349086008460068F7
:10059000FFF757FE10BD00005800002008000020A3
:1005A0000400002030B54448006840F4700042491F
:1005B00008604248006840F001004049086000209F
:1005C0003E49083108603D4800683D4908403B49C4
:1005D00008603C48091D0860081F006820F480205E
:1005E000091F0860002035490C3108603348006855
:1005F00040F48030314908600846006840F001004E
:100600000860002006E02D49096811F4003F00D081
:1006100003E0401CB0F5A04FF5D32848006810F463
:10062000003F43D040F20564274D2C60234C4034FA
:10063000246844F08054214D40352C60234C2468BC
:1006400044F44044214D2C601C4C0834246844F48C
:1006500014441A4D08352C6008204FF4A87102226A
:1006600007231B4C2D1F2C602C1F246844F0807422
:100670002D1F2C6000BF114C246814F0007FFAD0AD
:100680000E4C0834246824F003040C4D08352C600B
:100690002C46246844F002042C6000BF074C083448
:1006A000246804F00C04082CF8D100BF4FF000605F
:1006B00001498039086030BD88ED00E00038024013
:1006C000FFFFF6FE10300024003C024000700040A6
:1006D0000854400710B538480469002036490861BD
:1006E000012C04D0022C05D0042C62D105E0FFF7C8
:1006F000F1FE5EE0FFF724FF5BE030480068B0F5F4
:10070000C87F28D200BF2E482E4908602E480068B6
:10071000091D08602D48091D08602D480068091D45
:1007200008602848006840F0010026490860294810
:10073000006840F001002749086000BF1F480078AA
:1007400010F0010F2FD0224800681F4909680844A3
:100750001F49086027E019480068B0F5C87F05D137
:100760001D480068401C1C4908601CE013480068D4
:10077000B0F5CE7F02D1FFF7EDFE14E00F48006820
:10078000B0F5CF7F02D1FFF7AFFE0CE00B48006859
:10079000B0F5E07F07D14FF0FF30084908600F48FF
:1007A00000680B49086005480068401C0349086060
:1007B00000BF00BF10BD00000040014090000020BD
:1007C0005004030E286402408C00002015100240E3
:1007D00088000020000401408000002084000020E8
:1007E00010B50A48006910F0010F07D008480068EA
:1007F00000F0D0F900200549086105E005480068CF
:1008000010B100200349086010BD00000000014045
:1008100014000020104401404FF08040006820F098
:1008200001004FF0804108607047000010B5024899
:10083000006800F0AFF910BD1C00002010B50248A0
:10084000006800F0A7F910BD2000002010B5024894
:10085000006800F09FF910BD2400002010B5024888
:10086000006800F097F910BD2800002010B502487C
:10087000006800F08FF910BD2C00002010B5024870
:10088000006800F055FF10BD4C00002010B5024874
:10089000006800F04DFF10BD4000002010B5024878
:1008A000006800F045FF10BD4400002010B502486C
:1008B000006800F03DFF10BD4800002010B5024860
:1008C000006800F035FF10BD50000020F0B5034671
:1008D000002000250F24114E366806F4E066C6F5A8
:1008E000E066C6F30720C0F10406F5B2044101FA40
:1008F00005F6F0B202EA040630430607300E084E51
:10090000F05403F01F070126BE405F114FF0E02CAA
:100910000CEB8707C7F80061F0BD00000CED00E0AC
:1009200000E400E070B5014600200022002300BF73
:1009300045E0012404FA00F201EA020393422DD1BA
:10094000204C246846000325B540AC431D4D2C6067
:100950002C46246846000125B5402C43194D2C60D7
:100960002C46A46846000325B540AC43154DAC6049
:100970002C46A46846000225B5402C43114DAC60BE
:100980002C46656801248440A5430E4C656064686C
:1009900000258540ADB22C430A4D6C60094CE468DB
:1009A00046000325B540AC43064DEC602C46E46898
:1009B00046000125B5402C43024DEC60401C102838
:1009C000B7D370BD001002402DE9F041074600206A
:1009D00000250F24124E366806F4E066C6F5E06680
:1009E000C6F30720C0F10406F5B2044102FA05F689
:1009F000F0B203EA040630430607300E094E705485
:100A000001F01F0C012606FA0CF64FEA611C4FF0AC
:100A1000E02808EB8C0CCCF80061BDE8F081000008
:100A20000CED00E000E400E010B5044694F85E0030
:100A3000222852D2DFE800F011171D321E331F3476
:100A400020352136223723382439253A263B273CC6
:100A5000283D293E2A3F2B402C41012104F114005E
:100A600000F0B1F839E0002104F1140000F0ABF817
:100A700033E000BF00BF00BF00BF00BF00BF00BF2A
:100A800000BF00BF00BF00BF00BF00BF00BF00BF6E
:100A9000002104F12C0000F096F81EE000BF00BF1A
:100AA00000BF00BF00BF00BF00BF00BF00BF00BF4E
:100AB00000BF00BF00BF00BF00BF04F1440000F052
:100AC00075F8B4F85C1040EA4100A4F85C0001211C
:100AD00004F12C0000F077F800BF00BF94F85E002E
:100AE000212807D1002084F85E00B4F85C00C043E0
:100AF000208104E094F85E00401C84F85E0010BD84
:100B00002DE9F84304460E4617461D46DDF82080C1
:100B10000021204600F03CF904461D482060314683
:100B200004F10C0000F086FDA0F10C04002001236C
:100B30003A4604F10C01009004F1140000F054F85E
:100B4000A0F11404002001232A4604F10C010090B6
:100B500004F12C0000F048F8A0F12C04002003461A
:100B6000424604F10C01009004F1440000F03CF80E
:100B7000A0F144040020A4F85C0020810723012296
:100B80001C212046FFF720FF2046BDE8F883000027
:100B90008018000810B50446002061690861616989
:100BA0000861206801692046884710BD10B50446D9
:100BB00004F1080000F0FCF8E179884201D001203E
:100BC00010BD0020FCE770B504460D46A571E07924
:100BD000684001D0012000E00020014604F1080037
:100BE00000F0F3F870BD00002DE9F04104460F4617
:100BF00090461D46069E0E4820604246394604F146
:100C0000080000F0FDF8A0F10804002060712071D8
:100C1000A071E671314604F1080000F0D6F82946CB
:100C200004F1080000F0E1F82046BDE8F081000082
:100C30008C18000870B504463E480460D3224FF477
:100C40007A413D48FFF730FB3B4D07E03A49681ACF
:100C500000EBD071C1F3470129706D1C3748854204
:100C6000F4D33548364908600846006835490860BD
:100C70004FF4A07034490860012204F10800216992
:100C800000F0C0FC04F10800216900F0B1FC2F481D
:100C900000682F4908432D4908602C48143000682B
:100CA0002C4908432949143108602069FFF73AFEAE
:100CB0004020FFF737FE8020FFF734FEFFF740FCAF
:100CC000FFF748FC802024490860400022490C318D
:100CD000086000202049283108600C20091D0860A8
:100CE0001E48006820F001001C49086000221146DF
:100CF0003920FFF7EBFD8020194908600720C86004
:100D0000002088610862886241F2DA40C8624FF4CC
:100D10002070486340F2BF308863002211461820DB
:100D2000FFF7D4FD0E48006840F001000C49086050
:100D300070BD00007C0000200000012000FA0120AE
:100D400084000020880000208C0000203038024001
:100D500010004000024001000004014028640240ED
:100D60000040014003460A46196808E0914201D15B
:100D700000207047486808B1496800E001E0002998
:100D8000F4D100BF09B14A6000E01A600120F0E729
:100D900030B504460D4605482060002060601DB156
:100DA00021462846FFF7DEFF204630BD1C1900080B
:100DB00010B504466068026851698847E1680842D6
:100DC00001D0012010BD0020FCE770B504460D469F
:100DD0002DB1E168606803689A68904704E0E168B3
:100DE000606803681A69904770BD70B504460D4687
:100DF000217A6068026853682A46984770BD0000EF
:100E000010B5044B036041600272047A0123A340D1
:100E1000C36010BD28190008014901607047000037
:100E2000DC18000806480078002804DD0448007833
:100E3000401E034908700248007800B962B6704746
:100E40000000002072B603480078401C0149087079
:100E5000704700000000002050F8841F096901F06D
:100E60006041026811610168096941F4002102686A
:100E700011610168096841F0044150F8842911604A
:100E80007047000070B5044694F8831094F8810010
:100E900000F0E6FC0546E81CC11700EB91718E10CE
:100EA000D4F88400806980B2B04211D3601C002263
:100EB00084F8812084F88220002106E00268D4F8BA
:100EC00088301A604A1C91B2001DB142F6DB00BFA7
:100ED000002D07DC044800682278012191408843F6
:100EE0000149086070BD000034080050D0F884202B
:100EF000916070470146084800680B78D84000F0C0
:100F00000100054B243B1B6843EAC012D1F8840062
:100F100080681040704700003408005030B580F8F9
:100F20008310037803B90021104B1B680578012456
:100F3000AC40A4B223430D4C2360D0F884301B682E
:100F400013F4004F11D1C1F30A0343EA824304783A
:100F500043EA845343F0805343F40043D0F8844081
:100F600024682343D0F88440236030BD1C0800501F
:100F70002DE9F04104460E4694F8837094F88310EE
:100F800094F8810000F06CFC054694F8820020B9CA
:100F90002046FFF761FFBDE8F08125B95EB320462A
:100FA000FFF75AFF27E0E919491E91FBF7F1C8B294
:100FB00054F8841F096901F06041226811610F49EA
:100FC00001EAC041C5F312021143226812691143BC
:100FD000226811610A49096814F8843C01229A4088
:100FE0001143074A11602168096841F0044154F82F
:100FF0008429116000BF00BFCDE700000000F81F8A
:101000003408005050F8841F096901F060410268FB
:10101000116150F88419096990F8832042F4002284
:10102000114350F8842F11610168096841F00441AF
:1010300050F8842911607047D0F88420916070477F
:101040000146D1F884008068014A12681040704758
:101050001408005030B5CB1CDD1703EB9575C5F3B4
:101060008F04421C80F88110012580F882500023F3
:1010700006E0D0F888502D6815605D1CABB2121DDB
:10108000A342F6DB30BD000070B504460D4616469F
:1010900084F88350207800B900251348006822782E
:1010A00001219140114A02EA014108430E490860BA
:1010B000D4F88400006810F4004F0ED1C5F30A0084
:1010C00040EA864040F0805040F40040D4F884105C
:1010D00009680843D4F8841008602078002802DDED
:1010E000204600F005F870BD1C0800500000FFFF0E
:1010F00070B5044694F8835094F8831094F88100F6
:1011000000F0AEFB06461EB92046FFF77BFF22E04B
:1011100094F881102944491E91FBF5F1C8B254F8A6
:10112000841F096901F06041226811610A4901EADE
:10113000C04105FB00F2C2F312021143226812699A
:101140001143226811612168096841F0044154F893
:101150008429116000BF70BD0000F81F4FF0A0424D
:1011600052690A434FF0A0435A6170470146044850
:101170000068034A121D1268104080B270470000D8
:1011800018080050014604480068034A121D1268FE
:101190001040000C704700001808005002464FF045
:1011A000A04040694FF0A0439B6918400840884226
:1011B00001D1012070470020FCE700002DE9F0413B
:1011C00004464FF0A040406910F0010F01D0BDE887
:1011D000F08102212046FFF7E1FF18B102212046ED
:1011E000FFF7BCFF4FF400212046FFF7D7FF002890
:1011F0005FD02046FFF7C6FF07460026002555E0D2
:1012000017F0010F4FD0C5EBC50101EB810204F5CA
:101210001F7101EB8200FFF713FF064616F0010F66
:101220001AD0C5EBC50101EB810204F51F7101EB7A
:101230008200FFF75DFF20680022294603682046F0
:101240009847C5EBC50101EB810204F51F7101EB65
:1012500082000121FFF7F0FE16F0080F15D020687C
:1012600001220021036820469847012104F14C0027
:10127000FFF77EFEC5EBC50101EB810204F51F718E
:1012800001EB82000821FFF7D7FE16F0100F0AD0FD
:10129000C5EBC50101EB810204F51F7101EB820072
:1012A0001021FFF7C9FE681CC5B27F08002FA7D127
:1012B00000BF4FF480212046FFF770FF00287DD04B
:1012C0002046FFF753FF0746002600258CE017F065
:1012D000010F74D0C5EBC50101EB810204F14C0193
:1012E00001EB8200FFF706FE064616F0010F25D03F
:1012F0000120A840C0439B490860C5EBC50101EB34
:10130000810204F14C0101EB82000121FFF7EEFDA7
:1013100004F51F70FFF776FE45F08001206801227A
:10132000036820469847C5EBC50101EB810204F133
:101330004C0101EB82000021FFF71AFE16F0080FA6
:101340000AD0C5EBC50101EB810204F14C0101EBB0
:1013500082000821FFF7CAFD16F0100F0AD0C5EB76
:10136000C50101EB810204F14C0101EB8200102167
:10137000FFF7BCFD16F0400F0AD0C5EBC50101EB2D
:10138000810204F14C0101EB82004021FFF7AEFD28
:1013900016F0020F0AD0C5EBC50101EB810204F182
:1013A0004C0101EB82000221FFF7A0FD16F0800F37
:1013B00017D0C5EBC50101EB810201E018E010E098
:1013C00004F14C0101EB8200FFF75CFDC5EBC501A8
:1013D00001EB810204F14C0101EB82008021FFF757
:1013E00085FD681CC5B27F08002F7FF470AF00BF79
:1013F0004FF000412046FFF7D1FE58B15948303830
:10140000006820F00100574930390860490720463C
:10141000FFF7A4FE4FF400612046FFF7BFFE20B1A6
:101420004FF400612046FFF799FE4FF480512046AB
:10143000FFF7B4FE40B120688168204688474FF42A
:1014400080512046FFF78AFE4FF400512046FFF7F7
:10145000A5FE28B343483038006840F48070414905
:10146000303908604FF0A040C06820F470504FF051
:10147000A041C8600846C06840F4A050C86000227F
:10148000402104F51F70FFF7FFFD0022402104F109
:101490004C00FFF743FD4FF400512046FFF75EFE7E
:1014A00010212046FFF77AFEC0B34FF0A0408069BC
:1014B00020F010004FF0A04188610846056A05F051
:1014C0000F06C5F34340022810D147F6F0700542DD
:1014D0001BD0C6EBC60101EB810204F51F7101EBC5
:1014E0008200C5F30A11FFF7B5FD0EE0C5F34340D6
:1014F00006280AD1C6EBC60101EB810204F51F7173
:1015000001EB82000821FFF7A5FD4FF0A0408069A4
:1015100040F010004FF0A041886100BF0821204634
:10152000FFF73CFE18B108212046FFF717FE4FF0E9
:1015300080412046FFF732FE20B14FF08041204627
:10154000FFF70CFE04212046FFF728FE40B14FF0C4
:10155000A0414868496801434FF0A042516000BF74
:1015600000BF34E6340800502DE9F04703460C462E
:101570006006050E0120A0406FEA00080320A84085
:10158000C7434FF000090026B24612F0010F02D007
:10159000012000FA05F912F0040F02D00120A84042
:1015A000064312F0080F02D00220A840064312F0B2
:1015B000020F02D0012000FA04FAFFF743FC58683A
:1015C0000068384040EA0900596808605868C068F7
:1015D000384030435968C8605868406800EA0800DD
:1015E00040EA0A0059684860FFF71CFCBDE8F08734
:1015F00043685983704701464868006970474368EB
:10160000198370472DE9F04106460C461746002520
:101610000BE014F0010F05D030683A4629464368C4
:1016200030469847681CC5B26408102DF1DBBDE850
:10163000F081000070B504460D462046FFF7ECFB34
:10164000044630482060092D06D2DFE805F0060F79
:1016500018212A333C454E0050E02B4860602B484F
:10166000006840F001002949086047E028486060B0
:101670002648006840F00200244908603EE0254802
:1016800060602248006840F004002049086035E0AE
:10169000214860601D48006840F008001B49086050
:1016A0002CE01E4860601948006840F0100017499F
:1016B000086023E01A4860601448006840F0200089
:1016C000124908601AE0174860601048006840F04E
:1016D00040000E49086011E0134860600B48006844
:1016E00040F080000949086008E010486060074841
:1016F000006840F480700549086000BF00BF2046C4
:1017000070BD0000FC1800080000024030380240A4
:101710000004024000080240000C02400010024099
:101720000014024000180240001C02400020024049
:1017300010B50446A069006810F0400F07D06FF0A4
:101740004000A16908602068816920468847A06937
:10175000006810F0200F03D02068416920468847B8
:1017600010BDFEF799FD000038B503212348FFF7AF
:1017700061FF002001230F22204900902048FFF73D
:1017800033FA052007230622032100901D48FFF7A6
:10179000B7F9002003230122194600901A48FFF7E9
:1017A000AFF91A4C042500212046FFF7F1FA044650
:1017B00017482060294604F10800FFF73BFFA0F11D
:1017C00008044FF47F40206100200123062204F129
:1017D0000801009004F11400FFF706FAA0F11404C8
:1017E00000200123072204F10801009004F12C00DD
:1017F000FFF7FAF9A0F12C0400BF38BD74000020F7
:1018000094000020AC0000200C0100206C0100209E
:10181000D01800080EB50E48FFF70CFA16E00D4878
:10182000FFF702F90C48FFF7FFF800BF0A480089EC
:101830000090BDF80010084602900190BDF8040029
:10184000C0F3C01421460548FFF7BDF9E7E70000E3
:101850006C010020AC0000200C010020940000204E
:1018600002468A4201DA104670470846FCE74FF00C
:101870004070E1EE100A7047000000000000000018
:10188000290A00080000000000000000000000001D
:10189000C70B00080000000000000000000000006E
:1018A000AD0B000800000000000000000000000078
:1018B0000000000000000000000000000000000028
:1018C0000000000000000000000000000000000018
:1018D0000000000000000000000000006317000886
:1018E00063170008631700086317000863170008F0
:1018F0006317000800000000000000000516000843
:1019000069150008FF15000800000000F115000827
:10191000F7150008000000000000000000000000B3
:101920000000000000000000EB0D000800000000B7
:10193000CB0D000800000000B10D00086019000880
:101940000000002094000000C4010008F419000801
:10195000940000207C810000E00100080DFEFFFFE4
:101960000000000000000000000000000000000077
:101970000000000000000000000000000000000067
:101980000000000000000000000000000000000057
:101990000000000000000000000000000000000047
:1019A0000000000000000000000000000000000037
:1019B0000000000000000000000000000000000027
:1019C0000000000000000000000000000000000017
:1019D0000000000000000000000000000000000007
:1019E00000000000000000000000000000000000F7
:0419F00000000000F3
:040000050800018965
:00000001FF
