:020000040800F2
:1000000048820020590200086102000863020008CB
:10001000650200086702000869020008000000008D
:100020000000000000000000000000006B0200085B
:100030006D020008000000001505000869050008B1
:1000400073020008730200087302000873020008BC
:1000500073020008730200087302000873020008AC
:10006000730200087302000873020008730200089C
:10007000730200087302000873020008730200088C
:1000800073020008730200086D0400087302000880
:10009000730200087302000873020008730200086C
:1000A000D5060008B10700087302000873020008B3
:1000B000E9070008F90700080908000873020008AA
:1000C000730200087302000873020008730200083C
:1000D0007302000859080008690800087908000838
:1000E000730200087302000873020008730200081C
:1000F0007302000873020008390800087302000840
:10010000730200087302000819080008730200084F
:100110004908000873020008730200082908000853
:1001200073020008950400087302000873020008B7
:1001300073020008730200087302000873020008CB
:10014000730200087302000873020008FD0400082F
:10015000730200087302000873020008890800088F
:10016000730200087302000873020008730200089B
:10017000730200087302000873020008730200088B
:10018000730200087302000800F002F800F03EF865
:100190000AA090E8000C82448344AAF10107DA45E2
:1001A00001D100F033F8AFF2090EBAE80F0013F0F6
:1001B000010F18BFFB1A43F001031847AC1F0000E2
:1001C000CC1F0000103A24BF78C878C1FAD8520773
:1001D00024BF30C830C144BF04680C6070470000C1
:1001E0000023002400250026103A28BF78C1FBD840
:1001F000520728BF30C148BF0B6070471FB501F0E0
:10020000A2FC00F07FF81FBD10B510BD00F0E2F8B1
:100210001146FFF7F3FF01F083FC00F000F903B48F
:10022000FFF7F2FF03BC00F07FF80000EFF3088057
:1002300020E9F00F80F308882DED200AEFF3088005
:10024000704780F30888BDEC200AEFF30880B0E81F
:10025000F00F80F308887047094880470948004735
:10026000FEE7FEE7FEE7FEE7FEE7FEE7FEE7FEE766
:10027000FEE7FEE704480549054A064B70470000C3
:10028000A5050008890100084802002048820020D6
:100290004842002048420020002000F04BF8FFF7C1
:1002A000B3FF012000F040F802F0FF0343EA03220D
:1002B00042EA024200F002B84FF000020429C0F006
:1002C000128010F0030C00F03E80CCF1040CBCF165
:1002D000020F18BF00F8012BA8BF20F8022BA1EBDA
:1002E0000C0100F030B85FEAC17C24BF00F8012B9C
:1002F00000F8012B48BF00F8012B7047704770478A
:100300007047000070B5064C7C44064D7D4403E008
:10031000206820448047241DAC42F9D170BD000004
:100320007C1E00007C1E000001491820ABBEFEE7C9
:100330002600020010B500F035F8BDE8104000F0CE
:100340002CB84FF0000200B513469446964620396B
:1003500022BFA0E80C50A0E80C50B1F12001BFF47E
:10036000F7AF090728BFA0E80C5048BF0CC05DF8E4
:1003700004EB890028BF40F8042B08BF704748BF32
:1003800020F8022B11F0804F18BF00F8012B7047A6
:1003900000487047E40100207047002801D0FFF7B3
:1003A000C3BF704710B5002102A000F03EF8012045
:1003B00010BD0000534947414252543A2041626EF9
:1003C0006F726D616C207465726D696E6174696FB6
:1003D0006E0000007546FFF7DBFFAE46050069467C
:1003E000534620F00700854618B020B5FFF742FFBE
:1003F000BDE820404FF000064FF000074FF0000826
:100400004FF0000B21F00701AC46ACE8C009ACE8A6
:10041000C009ACE8C009ACE8C0098D467047044685
:10042000AFF300802046FFF7FAFE70B505460C4694
:100430000A2000E06D1C00F011F835B12878002882
:10044000F8D102E0641C00F009F814B1207800280B
:10045000F8D1BDE870400A20AFF3008008B56946C6
:100460008DF800000320ABBE08BD000010B50748A2
:10047000006820F00200054908600548006800682F
:10048000016903480068884710BD00000020014052
:100490001000002010B50C48006801690A48006887
:1004A000083001F03FFA0948006840F4006007494D
:1004B00008600748006820F0010005490860002036
:1004C00002492031086010BD9000002008640240FD
:1004D0000004014010B500210248006800F030FB24
:1004E00010BD00007C00002010B50021024800680B
:1004F000183000F025FB10BD7C00002010B500F086
:100500003BFE0348006800F0F3FF00F025FE10BD3D
:100510005400002010B5FFF789FE0749086000214C
:1005200005480068054A1268904703490860084674
:100530000068FFF786FE10BD5C000020040000206C
:1005400010B501210248006800F0FAFA10BD000061
:100550007C00002010B5012102480068183000F02E
:10056000EFFA10BD7C00002010B5FFF75FFE0A49CE
:1005700008600A480068401C0849086001210648D4
:100580000068074A126890470349086008460068F7
:10059000FFF757FE10BD00005800002008000020A3
:1005A0000400002030B54448006840F4700042491F
:1005B00008604248006840F001004049086000209F
:1005C0003E49083108603D4800683D4908403B49C4
:1005D00008603C48091D0860081F006820F480205E
:1005E000091F0860002035490C3108603348006855
:1005F00040F48030314908600846006840F001004E
:100600000860002006E02D49096811F4003F00D081
:1006100003E0401CB0F5A04FF5D32848006810F463
:10062000003F43D040F20564274D2C60234C4034FA
:10063000246844F08054214D40352C60234C2468BC
:1006400044F44044214D2C601C4C0834246844F48C
:1006500014441A4D08352C6008204FF4A87102226A
:1006600007231B4C2D1F2C602C1F246844F0807422
:100670002D1F2C6000BF114C246814F0007FFAD0AD
:100680000E4C0834246824F003040C4D08352C600B
:100690002C46246844F002042C6000BF074C083448
:1006A000246804F00C04082CF8D100BF4FF000605F
:1006B00001498039086030BD88ED00E00038024013
:1006C000FFFFF6FE10300024003C024000700040A6
:1006D0000854400710B53048046900202E490861CD
:1006E000012C04D0022C05D0042C53D105E0FFF7D7
:1006F000F1FE4FE0FFF724FF4CE028480068B0F51A
:10070000C87F19D226490968086E25490968096E0B
:1007100009680A682349096890472048007810F062
:10072000010F31D01E480068006E40681D490968FD
:1007300008441C49086027E018480068B0F5C87FE5
:1007400005D119480068401C174908601CE013488F
:100750000068B0F5CE7F02D1FFF7FCFE14E00F4831
:100760000068B0F5CF7F02D1FFF7BEFE0CE00B486A
:100770000068B0F5E07F07D14FF0FF30074908600F
:100780000A4800680749086004480068401C03499B
:10079000086000BF00BF10BD004001408C00002079
:1007A0007C000020880000208000002084000020C1
:1007B00010B50A48006910F0010F07D0084800681A
:1007C00000F0B2F900200549086105E0054800681D
:1007D00010B100200349086010BD00000000014076
:1007E000140000201044014010B50248006800F0D9
:1007F0009BF910BD1800002010B50248006800F0F9
:1008000093F910BD1C00002010B50248006800F0EC
:100810008BF910BD2000002010B50248006800F0E0
:1008200083F910BD2400002010B50248006800F0D4
:100830007BF910BD2800002010B50248006800F0C8
:1008400073F910BD2C00002010B50248006801F0BB
:1008500005F910BD4C00002010B50248006801F0F9
:10086000FDF810BD4000002010B50248006801F0FE
:10087000F5F810BD4400002010B50248006801F0F2
:10088000EDF810BD4800002010B50248006801F0E6
:10089000E5F810BD50000020F0B50346002000250B
:1008A0000F24114E366806F4E066C6F5E066C6F31E
:1008B0000720C0F10406F5B2044101FA05F6F0B2D2
:1008C00002EA040630430607300E084EF05403F0E7
:1008D0001F070126BE405F114FF0E02C0CEB87078D
:1008E000C7F80061F0BD00000CED00E000E400E09E
:1008F000F0B50346002000250F24114E366806F49B
:10090000E066C6F5E066C6F30720C0F10406F5B25E
:10091000044101FA05F6F0B202EA04063043060784
:10092000300E084EF05403F01F070126BE405F1141
:100930004FF0E02C0CEB8707C7F80061F0BD00001A
:100940000CED00E000E400E070B50146002000225C
:10095000002300BF45E0012404FA00F201EA02038B
:1009600093422DD1204C246846000325B540AC436A
:100970001D4D2C602C46246846000125B5402C43B3
:10098000194D2C602C46A46846000325B540AC43A5
:10099000154DAC602C46A46846000225B5402C439A
:1009A000114DAC602C46656801248440A5430E4C73
:1009B0006560646800258540ADB22C430A4D6C60CB
:1009C000094CE46846000325B540AC43064DEC6095
:1009D0002C46E46846000125B5402C43024DEC60EE
:1009E000401C1028B7D370BD0010024070B50146FE
:1009F00000200022002300BF45E0012404FA00F299
:100A000001EA020393422DD1204C246846000325BD
:100A1000B540AC431D4D2C602C4624684600012592
:100A2000B5402C43194D2C602C46A4684600032584
:100A3000B540AC43154DAC602C46A4684600022579
:100A4000B5402C43114DAC602C46656801248440B0
:100A5000A5430E4C6560646800258540ADB22C430B
:100A60000A4D6C60094CE46846000325B540AC4370
:100A7000064DEC602C46E46846000125B5402C4349
:100A8000024DEC60401C1028B7D370BD001002402E
:100A90002DE9F84304460E4617461D46DDF8208032
:100AA0000021204600F01CFB04461A482060314615
:100AB00004F10C0000F054FFA0F10C04002001230D
:100AC0003A4604F10C01009004F1140000F048F8DB
:100AD000A0F11404002001232A4604F10C01009027
:100AE00004F12C0000F03CF8A0F12C040020034697
:100AF000424604F10C01009004F1440000F030F88B
:100B0000A0F144040020A4F85C0020812046BDE848
:100B1000F8830000E01F0008024B03608180C28060
:100B200070470000EC1F000810B504460020616902
:100B3000086161690861206801692046884710BD25
:100B400070B504460D46A571E079684001D00120DA
:100B500000E00020014604F1080000F0D1FA70BD69
:100B60002DE9F04104460F4690461D46069E0E486C
:100B700020604246394604F1080000F0DBFAA0F19B
:100B80000804002060712071A071E671314604F103
:100B9000080000F0B5FA294604F1080000F0C0FA98
:100BA0002046BDE8F0810000082000080B4A0C4BED
:100BB0001A601B1D42681A600A4A1B1D1A601A1D22
:100BC0001160074A126842F00102054B1A60064A9A
:100BD000126842F00102044B1A6070475004030E81
:100BE0002864024015100240000401402DE9F04144
:100BF00004460D4616461F4620462349216045609F
:100C000000BF04462148206021492249A160716843
:100C1000E1602761012204F10800216900F088FEEB
:100C200004F10800216900F07DFE2069FFF7DEFE77
:100C300019480068194908431749086016481430D4
:100C400000680914084314491431086080201449CD
:100C50000860400012490C3108600020104928311A
:100C600008600C20091D08600E48006820F0010093
:100C70000C490860002211463920FFF739FE0A4866
:100C800004602046BDE8F081FC2000084C200008EC
:100C900008210008282100083038024010004000D8
:100CA00000040140286402409000002010B500229A
:100CB00003681B788B4207DC03685B788B4203DB9D
:100CC00003681B78CB1ADAB2D0E90043A47802FBA0
:100CD0000433836010BDF0B503460C46184600F09F
:100CE000D6FE02FB004085B2986800EBE500007874
:100CF00005F007078021394100EA01060EB1012005
:100D0000F0BD0020FCE701604260436883607047EB
:100D10000181428170472DE9F84F04468946924689
:100D20001D460A9E009620682B4652464946C76BD0
:100D30002046B84700270FE04FF0000808E0A18BDD
:100D40002068426C2046904708F101001FFA80F8A5
:100D5000A845F4DB781C87B2B742EDDBBDE8F88F1D
:100D600041837047818370472DE9F84F04468946D7
:100D7000494604F10C00FFF799FF04F10C0000F064
:100D80008AFE217E10FB01F0401C85B204F10C00AC
:100D900000F07DFE217E10FB01F60095628921891D
:100DA00020683346C76B2046B84700252EE0002751
:100DB00027E000261DE02A46314604F10C00FFF72B
:100DC0008AFF82464FF000080EE0BAF1000F01D012
:100DD000E08B00E0608B01462068426C2046904723
:100DE00008F1010000F0FF08207E4045EDDC701C9A
:100DF000C6B204F10C0000F04AFEB042DBDC781C05
:100E0000C7B2207EB842D4DC681CC5B204F10C0025
:100E100000F041FEA842CADC04F10C0000F037FEED
:100E20002189227E12FB00102081BDE8F88F00008E
:100E30003FB50446079D14220A212046FFF76CFEA9
:100E400004460B48206001A807C8C4E90412E0600A
:100E500025761F2060834CF21860A0834FF6FF7048
:100E6000E083002020816081204604B030BD000076
:100E70005820000810B50446628B4FF47A41206A6E
:100E8000FFF712FA10BD30B5039C018542858385BA
:100E9000C485058D8584458DC58430BD70B50446F7
:100EA0000D46E38CA28C20682946066C2046B0478C
:100EB000A08C401CA084208DA18D0844A18C884268
:100EC0000CDC208DA084E08C401CE084608DE18DE2
:100ED0000844E18C884201DC608DE08470BD70B50F
:100EE00003EB8306056A05EB8615A95470BD002146
:100EF0008184C184018541854FF4A0718185C82119
:100F0000C18570470FB4F8B504460D460B9E009698
:100F1000204608A90EC9FFF78BFF0446064820604B
:100F200025622046FFF7E3FF2046FFF7A3FF204698
:100F3000F8BC5DF814FB0000A820000838B5044692
:100F40002C4804602C49206D0860002104F1300019
:100F5000FFF706FF04F13000FFF78CFFFF2104F1DB
:100F60003000FFF7FFFE0A200346024601460090CC
:100F700004F13000FFF7CFFE192220A1204600F037
:100F800051F814220A2104F13000FFF7C1FE1A487B
:100F90000068214908602148006840F480301F49FA
:100FA00008604020FFF7D0FC8020FFF7CDFCFFF762
:100FB000C7FAFFF7CFFA8020194908600720C860F8
:100FC000002088610862886241F2DA40C8624FF40A
:100FD0002070486340F2BF30886300221146182019
:100FE000FFF75AFC0E48006840F001000C49086009
:100FF00038BD00007C000020840000207468697304
:101000002069732061207465737420746573742083
:1010100074657374000000008800002044380240AA
:101020000040014070B505460C46164605E014F830
:10103000011B05F13000FFF797FE701E061EF6DA61
:1010400070BD00002DE9F04186B004468846164682
:10105000002001230622414600902046FFF780FD34
:1010600004460020012307224146009004F11800A5
:10107000FFF776FDA0F1180403AF0C4D6A1D294659
:101080003846FFF740FE00BF012001900598009010
:10109000074904F13000DDE90323FFF733FFA0F136
:1010A00030042666204606B0BDE8F081501B0008DB
:1010B0000000012003460A46196808E0914201D168
:1010C00000207047486808B1496800E001E0002945
:1010D000F4D100BF09B14A6000E01A600120F0E7D6
:1010E00030B504460D4605482060002060601DB103
:1010F00021462846FFF7DEFF204630BD4821000884
:1011000070B504460D462DB1E168606803689A68C1
:10111000904704E0E168606803681A69904770BD11
:1011200070B504460D46217A6068026853682A4605
:10113000984770BD10B5044B036041600272047A99
:101140000123A340C36010BD542100080149016080
:10115000704700000821000806480078002804DDD8
:1011600004480078401E034908700248007800B91E
:1011700062B670470000002072B603480078401C39
:1011800001490870704700000000002050F8841FDB
:10119000096901F06041026811610168096941F45F
:1011A0000021026811610168096841F0044150F8AA
:1011B000842911607047000070B5044694F88310CC
:1011C00094F8810000F0B8FC0546E81CC11700EB5C
:1011D00091718E10D4F88400806980B2B04211D32E
:1011E000601C002284F8812084F88220002106E01F
:1011F0000268D4F888301A604A1C91B2001DB142CE
:10120000F6DB00BF002D07DC0448006822780121CE
:10121000914088430149086070BD000034080050C7
:10122000D0F88420916070470146084800680B7828
:10123000D84000F00100054B243B1B6843EAC01274
:10124000D1F88400806810407047000034080050D6
:1012500030B580F88310037803B90021104B1B6868
:1012600005780124AC40A4B223430D4C2360D0F890
:1012700084301B6813F4004F11D1C1F30A0343EA11
:101280008243047843EA845343F0805343F4004399
:10129000D0F8844024682343D0F88440236030BDD4
:1012A0001C0800502DE9F04104460E4694F8837066
:1012B00094F8831094F8810000F03EFC054694F801
:1012C000820020B92046FFF761FFBDE8F08125B913
:1012D0005EB32046FFF75AFF27E0E919491E91FB4C
:1012E000F7F1C8B254F8841F096901F0604122681F
:1012F00011610F4901EAC041C5F31202114322688E
:1013000012691143226811610A49096814F8843C82
:1013100001229A401143074A11602168096841F08F
:10132000044154F88429116000BF00BFCDE70000DC
:101330000000F81F3408005050F8841F096901F0BC
:1013400060410268116150F88419096990F883209E
:1013500042F40022114350F8842F1161016809689A
:1013600041F0044150F8842911607047D0F884207E
:10137000916070470146D1F884008068014A126884
:10138000104070471408005030B5CB1CDD1703EB3C
:101390009575C5F38F04421C80F88110012580F8F3
:1013A0008250002306E0D0F888502D6815605D1C3F
:1013B000ABB2121DA342F6DB30BD000070B504468F
:1013C0000D46164684F88350207800B9002513484E
:1013D0000068227801219140114A02EA0141084344
:1013E0000E490860D4F88400006810F4004F0ED154
:1013F000C5F30A0040EA864040F0805040F40040C7
:10140000D4F8841009680843D4F884100860207860
:10141000002802DD204600F005F870BD1C080050D1
:101420000000FFFF70B5044694F8835094F88310D1
:1014300094F8810000F080FB06461EB92046FFF7B5
:101440007BFF22E094F881102944491E91FBF5F1BD
:10145000C8B254F8841F096901F060412268116123
:101460000A4901EAC04105FB00F2C2F3120211432E
:10147000226812691143226811612168096841F0EC
:10148000044154F88429116000BF70BD0000F81FAA
:101490004FF0A04252690A434FF0A0435A6170478F
:1014A000014604480068034A121D1268104080B2C9
:1014B0007047000018080050014604480068034ABD
:1014C000121D12681040000C7047000018080050F0
:1014D00002464FF0A04040694FF0A0439B6918407E
:1014E0000840884201D1012070470020FCE700003D
:1014F0002DE9F04104464FF0A040406910F0010F83
:1015000001D0BDE8F08102212046FFF7E1FF18B1CC
:1015100002212046FFF7BCFF4FF400212046FFF7D1
:10152000D7FF00285FD02046FFF7C6FF07460026FA
:10153000002555E017F0010F4FD0C5EBC50101EBB9
:10154000810204F51F7101EB8200FFF713FF0646CD
:1015500016F0010F1AD0C5EBC50101EB810204F5AD
:101560001F7101EB8200FFF75DFF20680022294612
:10157000036820469847C5EBC50101EB810204F5DD
:101580001F7101EB82000121FFF7F0FE16F0080F3A
:1015900015D02068012200210368204698470121C8
:1015A00004F14C00FFF77EFEC5EBC50101EB8102A3
:1015B00004F51F7101EB82000821FFF7D7FE16F03A
:1015C000100F0AD0C5EBC50101EB810204F51F71B4
:1015D00001EB82001021FFF7C9FE681CC5B27F082D
:1015E000002FA7D100BF4FF480212046FFF770FFE6
:1015F00000287DD02046FFF753FF07460026002530
:101600008CE017F0010F74D0C5EBC50101EB81022E
:1016100004F14C0101EB8200FFF706FE064616F0CE
:10162000010F25D00120A840C0439B490860C5EBAD
:10163000C50101EB810204F14C0101EB82000121A3
:10164000FFF7EEFD04F51F70FFF776FE45F0800111
:1016500020680122036820469847C5EBC50101EBCD
:10166000810204F14C0101EB82000021FFF71AFE18
:1016700016F0080F0AD0C5EBC50101EB810204F199
:101680004C0101EB82000821FFF7CAFD16F0100F94
:101690000AD0C5EBC50101EB810204F14C0101EB5D
:1016A00082001021FFF7BCFD16F0400F0AD0C5EBF9
:1016B000C50101EB810204F14C0101EB82004021E4
:1016C000FFF7AEFD16F0020F0AD0C5EBC50101EB26
:1016D000810204F14C0101EB82000221FFF7A0FD21
:1016E00016F0800F17D0C5EBC50101EB810201E0B8
:1016F00018E010E004F14C0101EB8200FFF75CFD03
:10170000C5EBC50101EB810204F14C0101EB820044
:101710008021FFF785FD681CC5B27F08002F7FF48C
:1017200070AF00BF4FF000412046FFF7D1FE58B127
:1017300059483038006820F00100574930390860B6
:1017400049072046FFF7A4FE4FF400612046FFF74B
:10175000BFFE20B14FF400612046FFF799FE4FF421
:1017600080512046FFF7B4FE40B1206881682046D2
:1017700088474FF480512046FFF78AFE4FF400510E
:101780002046FFF7A5FE28B343483038006840F4F0
:1017900080704149303908604FF0A040C06820F4A3
:1017A00070504FF0A041C8600846C06840F4A05097
:1017B000C8600022402104F51F70FFF7FFFD0022E2
:1017C000402104F14C00FFF743FD4FF40051204647
:1017D000FFF75EFE10212046FFF77AFEC0B34FF000
:1017E000A040806920F010004FF0A04188610846B9
:1017F000056A05F00F06C5F34340022810D147F6ED
:10180000F07005421BD0C6EBC60101EB810204F566
:101810001F7101EB8200C5F30A11FFF7B5FD0EE061
:10182000C5F3434006280AD1C6EBC60101EB81028D
:1018300004F51F7101EB82000821FFF7A5FD4FF0B1
:10184000A040806940F010004FF0A041886100BFC7
:1018500008212046FFF73CFE18B108212046FFF77B
:1018600017FE4FF080412046FFF732FE20B14FF0C7
:1018700080412046FFF70CFE04212046FFF728FE9A
:1018800040B14FF0A0414868496801434FF0A04281
:10189000516000BF00BF34E6340800502DE9F04726
:1018A00003460C466006050E0120A0406FEA0008C2
:1018B0000320A840C7434FF000090026B24612F0AB
:1018C000010F02D0012000FA05F912F0040F02D036
:1018D0000120A840064312F0080F02D00220A840C1
:1018E000064312F0020F02D0012000FA04FAFFF7BB
:1018F00043FC58680068384040EA090059680860AD
:101900005868C068384030435968C86058684068B3
:1019100000EA080040EA0A0059684860FFF71CFC2A
:10192000BDE8F0874368598370474368198370475F
:101930002DE9F04106460C46174600250BE014F051
:10194000010F05D030683A4629464368304698472B
:10195000681CC5B26408102DF1DBBDE8F081000001
:1019600070B504460D462046FFF7F0FB04463048AC
:101970002060092D06D2DFE805F0060F18212A3372
:101980003C454E0050E02B4860602B48006840F01A
:1019900001002949086047E028486060264800683F
:1019A00040F00200244908603EE02548606022487B
:1019B000006840F004002049086035E0214860607C
:1019C0001D48006840F008001B4908602CE01E48D4
:1019D00060601948006840F010001749086023E073
:1019E0001A4860601448006840F0200012490860FE
:1019F0001AE0174860601048006840F040000E4947
:101A0000086011E0134860600B48006840F08000F7
:101A10000949086008E0104860600748006840F421
:101A200080700549086000BF00BF204670BD0000FF
:101A30002821000800000240303802400004024023
:101A400000080240000C0240001002400014024056
:101A500000180240001C02400020024010B504465D
:101A6000A069006810F0400F07D06FF04000A16936
:101A700008602068816920468847A069006810F0E6
:101A8000200F03D0206841692046884710BD0146D9
:101A90000868C07870470146086800797047FEF70B
:101AA000FBFB00003EB503211748FFF759FF00205C
:101AB00001230F22144900901448FFF751F8052024
:101AC00007230622032100901148FEF7E1FF0020C2
:101AD00003230122194600900E48FEF7D9FF042186
:101AE00001A8FFF73DFF04464FF47F4322464FF421
:101AF000A0710948FFF77AF8074A02F10801074880
:101B0000FFF7A0FA3EBD0000740000209400002002
:101B1000AC0000200C0100206C010020800100209E
:101B20000448FFF70BFA03483030FFF7E0F900BF35
:101B3000FEE700008001002002468A4201DA1046DA
:101B400070470846FCE74FF04070E1EE100A70471E
:101B5000207F0C080C0000000000000000000000C6
:101B6000000008080808080808000800000014140D
:101B7000140000000000000000000A0A3F141414C2
:101B80007E2828000000081C22201C02221C0800BD
:101B900000002051220408102245020000001820F5
:101BA000201030494A443B000000080808000000AB
:101BB00000000000000004080810101010100808B1
:101BC00004001008080404040404080810000000BD
:101BD000361C7F1C36000000000000000808087F4B
:101BE00008080800000000000000000000000810C5
:101BF000000000000000007F000000000000000066
:101C000000000000000008000000000102040810AD
:101C10002040000000001C222222222222221C003E
:101C2000000008380808080808083E0000001C22C8
:101C30000202040810203E0000001C2202020C02D6
:101C400002221C000000040C0C1414243E040E009C
:101C500000003E2020203C0202221C0000000C104C
:101C600020203C2222221C0000003E220204040804
:101C70000810100000001C2222221C2222221C001C
:101C800000001C2222221E02020418000000000094
:101C9000000800000000080000000000000800002C
:101CA00000000810000000000408102010080400C4
:101CB00000000000003E003E0000000000000000A8
:101CC000100804020408100000001C22020204088C
:101CD0000800080000001E214D5555554E201C00DF
:101CE00000001808081414223E22770000007E210C
:101CF00021213E2121217E0000001E214040404044
:101D000040211E0000007C222121212121227C0073
:101D100000007F2120243C2420217F0000007F211F
:101D200020243C242020780000001E214040404711
:101D300041211E000000772222223E22222277002B
:101D400000003E080808080808083E0000001E04BD
:101D50000404040444443800000073222424283876
:101D60002422730000007C101010101010117F004E
:101D70000000632236362A2A2222770000006722DA
:101D800032322A262622720000001C2241414141A3
:101D900041221C0000007E2121213E2020207800CD
:101DA00000001C224141414141221C1B00007E21B8
:101DB00021213E242422730000003E4140403E0188
:101DC00001413E0000007F490808080808081C007F
:101DD000000077222222222222221C0000007722E9
:101DE00022221414140808000000772222222A2A32
:101DF0002A14140000007722141408141422770007
:101E0000000077222214140808081C0000007F42FA
:101E10000404081010217F0000001C101010101086
:101E2000101010101C0000402010080402010000D7
:101E300000001C0404040404040404041C08142208
:101E40000000000000000000000000000000000092
:101E500000000000FF00100800000000000000006B
:101E600000000000003C023E42423D0000006020B5
:101E7000203E212121217E0000000000003E414043
:101E800040413E0000000602023E424242423F0004
:101E900000000000003E417F40413E0000000C1069
:101EA000103C101010103C0000000000003F4242A7
:101EB000423E02023C006020202C32222222770087
:101EC000000008000038080808083E000000040070
:101ED000003C040404040404380060202026242864
:101EE00038246300000018080808080808083E00A5
:101EF0000000000000742A2A2A2A6B00000000005B
:101F0000006C32222222770000000000003E414196
:101F100041413E0000000000007E212121213E20A1
:101F200070000000003F424242423E0207000000B3
:101F30000076191010107C0000000000003E4138AF
:101F400006413E0000000010103C101010120C0062
:101F5000000000000066222222261B000000000074
:101F60000077222214140800000000000077222AC3
:101F70002A141400000000000077221C1C227700A5
:101F8000000000000077222214140808300000002E
:101F9000007E440810227E00000006080808083071
:101FA00008080808060808080808080808080808B3
:101FB0000800300808080806080808083000003142
:101FC00049460000000000000000001C1C1C1C1CF6
:101FD0001C1C1C1C00000000000000000000000091
:101FE0000000000000000000000000009F1A000830
:101FF0009F1A00089F1A000800000000000000005F
:10200000000000000000000000000000410B00087C
:1020100000000000000000000000000000000000C0
:1020200000000000000000000000000000000000B0
:1020300000000000000000000000000000000000A0
:10204000000000000000000000000000AD0B0008D0
:1020500000000000000000009F1A000800000000BF
:10206000690D0008000000000000000000000000F2
:1020700000000000610D0008650D00080000000070
:10208000110D000800000000170D000800000000FE
:10209000000000009F1A00089F1A00089F1A0008FD
:1020A0000000000000000000750E000800000000A5
:1020B000690D0008000000000000000000000000A2
:1020C00000000000610D0008650D00080000000020
:1020D000110D000800000000170D000800000000AE
:1020E00000000000870E0008DF0E00089D0E0008AB
:1020F000EF0E000800000000000000009F1A00081A
:1021000000000000000000009F1A00089F1A00084D
:102110009F1A00089F1A00089F1A00089F1A0008BB
:102120000000000000000000311900089D180008A0
:102130002B1900080000000025190008000000000D
:10214000000000000000000000000000000000008F
:10215000000000002111000800000000011100082B
:1021600000000000000000008C210008000000209A
:1021700094000000C4010008202200089400002000
:10218000B4810000E00100081DF9FFFF000000001D
:10219000000000000000000000000000000000003F
:1021A000000000000000000000000000000000002F
:1021B000000000000000000000000000000000001F
:1021C000000000000000000000000000000000000F
:1021D00000000000000000000000000000000000FF
:1021E00000000000000000000000000000000000EF
:1021F00000000000000000000000000000000000DF
:1022000000000000000000000000000000000000CE
:1022100000000000000000000000000000000000BE
:040000050800018965
:00000001FF
