:020000040800F2
:100000000082002059020008610200086302000813
:10001000650200086702000869020008000000008D
:100020000000000000000000000000006B0200085B
:100030006D020008000000000D04000839040008EB
:1000400073020008730200087302000873020008BC
:1000500073020008730200087302000873020008AC
:10006000730200087302000873020008730200089C
:10007000730200087302000873020008730200088C
:100080007302000873020008CD0300087302000821
:10009000730200087302000873020008730200086C
:1000A00073020008A5050008730200087302000827
:1000B000DD050008ED050008FD05000873020008D5
:1000C000730200087302000873020008730200083C
:1000D000730200084D0600085D0600086D06000862
:1000E000730200087302000873020008730200081C
:1000F00073020008730200082D060008730200084E
:1001000073020008730200080D060008730200085D
:100110003D06000873020008730200081D0600086F
:1001200073020008730200087302000873020008DB
:1001300073020008730200087302000873020008CB
:10014000730200087302000873020008F503000838
:100150007302000873020008730200087D0600089D
:10016000730200087302000873020008730200089B
:10017000730200087302000873020008730200088B
:10018000730200087302000800F002F800F03EF865
:100190000AA090E8000C82448344AAF10107DA45E2
:1001A00001D100F033F8AFF2090EBAE80F0013F0F6
:1001B000010F18BFFB1A43F001031847A41A0000EF
:1001C000C41A0000103A24BF78C878C1FAD8520780
:1001D00024BF30C830C144BF04680C6070470000C1
:1001E0000023002400250026103A28BF78C1FBD840
:1001F000520728BF30C148BF0B6070471FB501F0E0
:10020000B1FC00F055F81FBD10B510BD00F092F81C
:100210001146FFF7F3FF01F0EFF900F0B0F803B477
:10022000FFF7F2FF03BC00F055F80000EFF3088081
:1002300020E9F00F80F308882DED200AEFF3088005
:10024000704780F30888BDEC200AEFF30880B0E81F
:10025000F00F80F308887047094880470948004735
:10026000FEE7FEE7FEE7FEE7FEE7FEE7FEE7FEE766
:10027000FEE7FEE704480549054A064B70470000C3
:100280007504000889010008000200200082002097
:100290000042002000420020002000F021F8FFF77B
:1002A000B3FF012000F016F8704770477047000058
:1002B00070B5064C7C44064D7D4403E02068204424
:1002C0008047241DAC42F9D170BD0000C819000060
:1002D000C819000001491820ABBEFEE72600020045
:1002E00010B500F00FF8BDE8104000F006B80000AF
:1002F00000487047A00100207047002801D0FFF798
:10030000E9BF704710B5002102A000F03EF80120BF
:1003100010BD0000534947414252543A2041626E99
:100320006F726D616C207465726D696E6174696F56
:100330006E0000007546FFF7DBFFAE46050069461C
:10034000534620F00700854618B020B5FFF792FF0E
:10035000BDE820404FF000064FF000074FF00008C6
:100360004FF0000B21F00701AC46ACE8C009ACE847
:10037000C009ACE8C009ACE8C0098D467047044626
:10038000AFF300802046FFF74AFF70B505460C46E4
:100390000A2000E06D1C00F011F835B12878002823
:1003A000F8D102E0641C00F009F814B120780028AC
:1003B000F8D1BDE870400A20AFF3008008B5694667
:1003C0008DF800000320ABBE08BD000010B5074843
:1003D000006820F0020005490860054800680068D0
:1003E000016903480068884710BD000000200140F3
:1003F0001000002010B500F04FFC0348006800F02A
:1004000017FE00F039FC10BD5400002010B5FFF7B6
:100410000DFF07490860002105480068054A126879
:1004200090470349086008460068FFF70AFF10BDBF
:100430005C0000200400002010B5FFF7F7FE0A4919
:1004400008600A480068401C084908600121064805
:100450000068074A12689047034908600846006828
:10046000FFF7EFFE10BD000058000020080000203C
:100470000400002030B54448006840F47000424950
:1004800008604248006840F00100404908600020D0
:100490003E49083108603D4800683D4908403B49F5
:1004A00008603C48091D0860081F006820F480208F
:1004B000091F0860002035490C3108603348006886
:1004C00040F4A020314908600846006840F001006F
:1004D0000860002006E02D49096811F4003F00D0B3
:1004E00003E0401CB0F5A04FF5D32848006810F495
:1004F000003F43D040F20564274D2C60234C40342C
:10050000246844F08054214D40352C60234C2468ED
:1005100044F48044214D2C601C4C0834246844F47D
:1005200034441A4D08352C6019204FF4A871042268
:1005300007231B4C2D1F2C602C1F246844F0807453
:100540002D1F2C6000BF114C246814F0007FFAD0DE
:100550000E4C0834246824F003040C4D08352C603C
:100560002C46246844F002042C6000BF074C083479
:10057000246804F00C04082CF8D100BF4FF0006090
:1005800001498039086030BD88ED00E00038024044
:10059000FFFFF6FE10300024003C024000700040D7
:1005A0001954410710B50A48006910F0010F07D02F
:1005B0000848006800F032F900200549086105E0AC
:1005C0000548006810B100200349086010BD000014
:1005D00000000140140000201044014010B5024802
:1005E000006800F01BF910BD1800002010B502488B
:1005F000006800F013F910BD1C00002010B502487F
:10060000006800F00BF910BD2000002010B5024872
:10061000006800F003F910BD2400002010B5024866
:10062000006800F0FBF810BD2800002010B502485B
:10063000006800F0F3F810BD2C00002010B502484F
:10064000006800F097FF10BD4C00002010B5024874
:10065000006800F08FFF10BD4000002010B5024878
:10066000006800F087FF10BD4400002010B502486C
:10067000006800F07FFF10BD4800002010B5024860
:10068000006800F077FF10BD5000002000F01F024E
:100690000121914042094FF0E02303EB8202C2F8AE
:1006A0000011704710B5044694F87600222852D203
:1006B000DFE800F011171D321E331F3420352136BC
:1006C000223723382439253A263B273C283D293E2A
:1006D0002A3F2B402C41012104F1140000F025FA9F
:1006E00039E0002104F1140000F01FFA33E000BFEC
:1006F00000BF00BF00BF00BF00BF00BF00BF00BF02
:1007000000BF00BF00BF00BF00BF00BF002104F159
:100710002C0000F00AFA1EE000BF00BF00BF00BFBF
:1007200000BF00BF00BF00BF00BF00BF00BF00BFD1
:1007300000BF00BF00BF04F1440000F0E9F9B4F8C5
:10074000741040EA4100A4F87400012104F12C0067
:1007500000F0EBF900BF00BF94F87600212807D124
:10076000002084F87600B4F87400C043208104E0CF
:1007700094F87600401C84F8760010BD2DE9F8430B
:1007800004460E4617461D46DDF82080002120460F
:1007900000F01AFA044620482060314604F10C00AB
:1007A00000F06AFEA0F10C04002001233A4604F197
:1007B0000C01009004F1140000F0C8F9A0F1140439
:1007C000002001232A4604F10C01009004F12C00C2
:1007D00000F0BCF9A0F12C0400200346424604F1CD
:1007E0000C01009004F1440000F0B0F9A0F14404C1
:1007F0000A22022104F15C0000F01CF8A0F15C0464
:100800000020A4F874002081214604F15C0000F06F
:1008100054FA2046BDE8F883781B000810B504465A
:1008200000206169086161690861206801692046EA
:10083000884710BD2DE9F0412DED0C8B04460F4685
:10084000164622469348206002F1080000F0D8F9CD
:10085000A0F1080200BF14468F4810602774207C66
:100860000C2807D2DFE800F0060715263646566644
:10087000747F8A959AE08948606189480460894854
:10088000006840F00100874908601920FFF7FEFE6C
:100890008CE04FF080406061834804608148001F15
:1008A000006840F001007F49091F08601C20FFF725
:1008B000EDFE7BE07D4860617D4804607948001F63
:1008C000006840F002007749091F08601D20FFF70B
:1008D000DDFE6BE077486061774804607148001F77
:1008E000006840F004006F49091F08601E20FFF7F0
:1008F000CDFE5BE071486061714804606948001F8B
:10090000006840F008006749091F08603220FFF7BF
:10091000BDFE4BE06B4860616B4804606148001F9E
:10092000006840F020005F49091F08603720FFF78A
:10093000ADFE3BE065486061654804605948006869
:1009400040F00200574908602E20FFF79FFE2DE07F
:1009500060486061604804605248006840F480303C
:100960005049086022E05D4860615D4804604D4880
:10097000006840F400304B49086017E05948606156
:10098000594804604748006840F4802045490860A1
:100990000CE056486061564804604248001F0068F9
:1009A00040F480703F49091F086000BF00BF00EE9F
:1009B000106AB8EE400ADFED4F0A20EE200ADFEDA4
:1009C0004E0A20EE208A012508E005EB850045004F
:1009D000B2EE040AC8EE000AB0EE608A9FED470A44
:1009E000B4EEC08AF1EE10FAEFDCBCEEC80A84ED7A
:1009F000030A284600F0A5FF41EC100BB0EE40BA08
:100A0000F0EE60BAE06800F09CFF41EC100BB0EE35
:100A100040DAF0EE60DA9FED3A0B53EC102B51EC1C
:100A20001D0B00F0A1FF41EC100BB0EE40CAF0EE40
:100A300060CA53EC1B2B51EC1C0B00F095FF41ECF2
:100A4000100BB0EE40AAF0EE60AA9FED2F0B53EC16
:100A5000102B51EC1A0B00F0EFFD41EC100BB0EE37
:100A6000409AF0EE609A51EC190B00F03DFF606087
:100A70000120616908606169C86061694861681E38
:100A8000616988626169E068C8622046BDEC0C8BD0
:100A9000BDE8F081041C0008841B00080000014030
:100AA00014000020443802401800002000040040D8
:100AB0001C0000200008004020000020000C004026
:100AC0002400002000140040280000200004014001
:100AD0002C00002000400140300000200044014074
:100AE0003400002000480140380000200020004071
:100AF0003C000020A037204CBD37863500FF7F47E3
:100B00000000000080842E4100000000F4068441B3
:100B100010B5044604F1080000F075F8E179884248
:100B200001D0012010BD0020FCE770B504460D4641
:100B3000A571E079684001D0012000E00020014665
:100B400004F1080000F06CF870BD00002DE9F041E0
:100B500004460F4690461D46069E0E4820604246BB
:100B6000394604F1080000F075F8A0F108040020EF
:100B700060712071A071E671314604F1080000F047
:100B80004FF8294604F1080000F05AF82046BDE865
:100B9000F0810000A01B000803460A46196808E01F
:100BA000914201D100207047486808B1496800E0CF
:100BB00001E00029F4D100BF09B14A6000E01A60E9
:100BC0000120F0E77047000030B504460D460548A7
:100BD0002060002060601DB121462846FFF7DCFF41
:100BE000204630BD401C000870B505462C6804E066
:100BF00020680168204688476468002CF8D170BDE1
:100C000000210160704710B50446606802685169B0
:100C10008847E168084201D0012010BD0020FCE7B0
:100C200070B504460D462DB1E168606803689A68A6
:100C3000904704E0E168606803681A69904770BDF6
:100C400070B504460D46217A6068026853682A46EA
:100C5000984770BD10B5044B036041600272047A7E
:100C60000123A340C36010BD4C1C00080149016072
:100C700070470000E41B000806480078002804DDE7
:100C800004480078401E034908700248007800B903
:100C900062B670470000002072B603480078401C1E
:100CA00001490870704700000000002010B504469C
:100CB00004F10800FFF798FF10BD30B504460D465B
:100CC000294604F10800FFF767FF30BD50F8841F84
:100CD000096901F06041026811610168096941F424
:100CE0000021026811610168096841F0044150F86F
:100CF000842911607047000070B5044694F8831091
:100D000094F8810000F090FC0546E81CC11700EB48
:100D100091718E10D4F88400806980B2B04211D3F2
:100D2000601C002284F8812084F88220002106E0E3
:100D30000268D4F888301A604A1C91B2001DB14292
:100D4000F6DB00BF002D07DC044800682278012193
:100D5000914088430149086070BD0000340800508C
:100D6000D0F88420916070470146084800680B78ED
:100D7000D84000F00100054B243B1B6843EAC01239
:100D8000D1F884008068104070470000340800509B
:100D900030B580F88310037803B90021104B1B682D
:100DA00005780124AC40A4B223430D4C2360D0F855
:100DB00084301B6813F4004F11D1C1F30A0343EAD6
:100DC0008243047843EA845343F0805343F400435E
:100DD000D0F8844024682343D0F88440236030BD99
:100DE0001C0800502DE9F04104460E4694F883702B
:100DF00094F8831094F8810000F016FC054694F8EE
:100E0000820020B92046FFF761FFBDE8F08125B9D7
:100E10005EB32046FFF75AFF27E0E919491E91FB10
:100E2000F7F1C8B254F8841F096901F060412268E3
:100E300011610F4901EAC041C5F312021143226852
:100E400012691143226811610A49096814F8843C47
:100E500001229A401143074A11602168096841F054
:100E6000044154F88429116000BF00BFCDE70000A1
:100E70000000F81F3408005050F8841F096901F081
:100E800060410268116150F88419096990F8832063
:100E900042F40022114350F8842F1161016809685F
:100EA00041F0044150F8842911607047D0F8842043
:100EB000916070470146D1F884008068014A126849
:100EC000104070471408005030B5CB1CDD1703EB01
:100ED0009575C5F38F04421C80F88110012580F8B8
:100EE0008250002306E0D0F888502D6815605D1C04
:100EF000ABB2121DA342F6DB30BD000070B5044654
:100F00000D46164684F88350207800B90025134812
:100F10000068227801219140114A02EA0141084308
:100F20000E490860D4F88400006810F4004F0ED118
:100F3000C5F30A0040EA864040F0805040F400408B
:100F4000D4F8841009680843D4F884100860207825
:100F5000002802DD204600F005F870BD1C08005096
:100F60000000FFFF70B5044694F8835094F8831096
:100F700094F8810000F058FB06461EB92046FFF7A2
:100F80007BFF22E094F881102944491E91FBF5F182
:100F9000C8B254F8841F096901F0604122681161E8
:100FA0000A4901EAC04105FB00F2C2F312021143F3
:100FB000226812691143226811612168096841F0B1
:100FC000044154F88429116000BF70BD0000F81F6F
:100FD0004FF0A04252690A434FF0A0435A61704754
:100FE000014604480068034A121D1268104080B28E
:100FF0007047000018080050014604480068034A82
:10100000121D12681040000C7047000018080050B4
:1010100002464FF0A04040694FF0A0439B69184042
:101020000840884201D1012070470020FCE7000001
:101030002DE9F04104464FF0A040406910F0010F47
:1010400001D0BDE8F08102212046FFF7E1FF18B191
:1010500002212046FFF7BCFF4FF400212046FFF796
:10106000D7FF00285FD02046FFF7C6FF07460026BF
:10107000002555E017F0010F4FD0C5EBC50101EB7E
:10108000810204F51F7101EB8200FFF713FF064692
:1010900016F0010F1AD0C5EBC50101EB810204F572
:1010A0001F7101EB8200FFF75DFF206800222946D7
:1010B000036820469847C5EBC50101EB810204F5A2
:1010C0001F7101EB82000121FFF7F0FE16F0080FFF
:1010D00015D020680122002103682046984701218D
:1010E00004F14C00FFF77EFEC5EBC50101EB810268
:1010F00004F51F7101EB82000821FFF7D7FE16F0FF
:10110000100F0AD0C5EBC50101EB810204F51F7178
:1011100001EB82001021FFF7C9FE681CC5B27F08F1
:10112000002FA7D100BF4FF480212046FFF770FFAA
:1011300000287DD02046FFF753FF074600260025F4
:101140008CE017F0010F74D0C5EBC50101EB8102F3
:1011500004F14C0101EB8200FFF706FE064616F093
:10116000010F25D00120A840C0439B490860C5EB72
:10117000C50101EB810204F14C0101EB8200012168
:10118000FFF7EEFD04F51F70FFF776FE45F08001D6
:1011900020680122036820469847C5EBC50101EB92
:1011A000810204F14C0101EB82000021FFF71AFEDD
:1011B00016F0080F0AD0C5EBC50101EB810204F15E
:1011C0004C0101EB82000821FFF7CAFD16F0100F59
:1011D0000AD0C5EBC50101EB810204F14C0101EB22
:1011E00082001021FFF7BCFD16F0400F0AD0C5EBBE
:1011F000C50101EB810204F14C0101EB82004021A9
:10120000FFF7AEFD16F0020F0AD0C5EBC50101EBEA
:10121000810204F14C0101EB82000221FFF7A0FDE5
:1012200016F0800F17D0C5EBC50101EB810201E07C
:1012300018E010E004F14C0101EB8200FFF75CFDC7
:10124000C5EBC50101EB810204F14C0101EB820009
:101250008021FFF785FD681CC5B27F08002F7FF451
:1012600070AF00BF4FF000412046FFF7D1FE58B1EC
:1012700059483038006820F001005749303908607B
:1012800049072046FFF7A4FE4FF400612046FFF710
:10129000BFFE20B14FF400612046FFF799FE4FF4E6
:1012A00080512046FFF7B4FE40B120688168204697
:1012B00088474FF480512046FFF78AFE4FF40051D3
:1012C0002046FFF7A5FE28B343483038006840F4B5
:1012D00080704149303908604FF0A040C06820F468
:1012E00070504FF0A041C8600846C06840F4A0505C
:1012F000C8600022402104F51F70FFF7FFFD0022A7
:10130000402104F14C00FFF743FD4FF4005120460B
:10131000FFF75EFE10212046FFF77AFEC0B34FF0C4
:10132000A040806920F010004FF0A041886108467D
:10133000056A05F00F06C5F34340022810D147F6B1
:10134000F07005421BD0C6EBC60101EB810204F52B
:101350001F7101EB8200C5F30A11FFF7B5FD0EE026
:10136000C5F3434006280AD1C6EBC60101EB810252
:1013700004F51F7101EB82000821FFF7A5FD4FF076
:10138000A040806940F010004FF0A041886100BF8C
:1013900008212046FFF73CFE18B108212046FFF740
:1013A00017FE4FF080412046FFF732FE20B14FF08C
:1013B00080412046FFF70CFE04212046FFF728FE5F
:1013C00040B14FF0A0414868496801434FF0A04246
:1013D000516000BF00BF34E6340800502DE9F047EB
:1013E00003460C466006050E0120A0406FEA000887
:1013F0000320A840C7434FF000090026B24612F070
:10140000010F02D0012000FA05F912F0040F02D0FA
:101410000120A840064312F0080F02D00220A84085
:10142000064312F0020F02D0012000FA04FAFFF77F
:1014300033FC58680068384040EA09005968086081
:101440005868C068384030435968C8605868406878
:1014500000EA080040EA0A0059684860FFF70CFCFF
:10146000BDE8F087436859837047014648680069C2
:10147000704743681983704770B504460D4620468F
:10148000FFF7F4FB044630482060092D06D2DFE860
:1014900005F0060F18212A333C454E0050E02B483A
:1014A00060602B48006840F001002949086047E06F
:1014B000284860602648006840F00200244908601F
:1014C0003EE0254860602248006840F00400204962
:1014D000086035E0214860601D48006840F0080061
:1014E0001B4908602CE01E4860601948006840F005
:1014F00010001749086023E01A486060144800682B
:1015000040F02000124908601AE017486060104857
:10151000006840F040000E49086011E01348606028
:101520000B48006840F080000949086008E0104856
:1015300060600748006840F480700549086000BF9B
:1015400000BF204670BD0000201C000800000240C3
:10155000303802400004024000080240000C024003
:10156000001002400014024000180240001C02401B
:101570000020024010B50446A069006810F0400F3A
:1015800007D06FF04000A16908602068816920469B
:101590008847A069006810F0200F03D020684169D7
:1015A0002046884710BDFEF777FE000008B50321EE
:1015B0000D48FFF761FF002001230F220A49009028
:1015C0000A48FFF7C3FA05200723062203210090EB
:1015D0000748FFF7D3F800200323012219460090A3
:1015E0000448FFF7CBF808BD9000002098000020C9
:1015F000B0000020280100200EB510E000BF084810
:1016000000890090BDF80010084602900190BDF8D6
:101610000400C0F3C01421460248FFF786FAEDE744
:10162000280100209800002002468A4201DA104674
:1016300070470846FCE700002DE9C04130B4DFF8F0
:10164000A0C23CEA111418BF3CEA131400F0EC806D
:1016500081EA03051CEA111444EAD57418BF1CEA98
:10166000131500F0C780A4EB05044FF0004545EAD0
:10167000C12145EAC32341EA505143EA525304F1E0
:101680007F74994204F500344FEAC0204FEAC22229
:1016900008BF904200F09C804FEA13650FF240169D
:1016A000765D4FEA134506FB05F7C7F1807706FB29
:1016B00007F74FEAD737A7FB03687642C8F58038AB
:1016C000A7FB06CE38BFA8F1010807FB08E64FF0DC
:1016D000000EA6FB028CE6FB03CEDCF1000CCEF183
:1016E000004E38BFAEF1010EA6FB0C584FF00007BC
:1016F0004FF00005E6FB0E87A1FB08C6A0FB07CE56
:1017000016EB0E0645F10005E1FB076515F1E04E0D
:101710007EBFA4F580345FEA46066D4116F180076E
:1017200045F100054FEA17274FEA066647EA0567C5
:10173000A6F1DE46B6F1805F4FEA15251FD938467F
:1017400024F0010C05EBC471BCF1FE6F01EB0C1130
:1017500002D8F0BCBDE8008124425CBF01F5801EC8
:101760009EEAC47F02D4F0BCBDE80081244238D494
:10177000F0BCA1F1C041BDE8004100F0EDB94FEA75
:10178000D22242EA43524FEAD323A7FB02864FEA12
:10179000D02040EA415007FB03661EEA0E0F4FEAD5
:1017A000D12105FB026658BFA6EB0056B6EB0056EA
:1017B0004FEA520E4EEAC37E18EB0E0E56EB530E56
:1017C000BDD518EB02085E417F1C55F10005B6E758
:1017D0004FF480154FF000074FF000064FF000085F
:1017E000ADE7F0BC4FF0000001F1C04101F0004155
:1017F000BDE8008111EA0C1F0CEA131500D00CE0C3
:1018000013EA0C1F00F025804FF00000F0BC81EAC5
:10181000030101F00041BDE80081F0BCBDE80041DA
:1018200081EA030100F098B9F0BCBDE8004170B551
:1018300000F044F9097EFC3E00F007B881EA03019C
:101840004FF0000001F00041704781EA030100F011
:1018500083B9F0BCBDE800414FF00000214970475A
:10186000FFFDFBF9F7F5F4F2F0EEEDEBE9E8E6E465
:10187000E3E1E0DEDDDBDAD8D7D5D4D3D1D0CFCDEC
:10188000CCCBCAC8C7C6C5C4C2C1C0BFBEBDBCBB25
:10189000BAB9B8B7B6B5B4B3B2B1B0AFAEADACAB20
:1018A000AAA9A8A8A7A6A5A4A3A3A2A1A09F9F9EFA
:1018B0009D9C9C9B9A9999989797969595949393AC
:1018C000929191908F8F8E8E8D8C8C8B8B8A898943
:1018D00088888787868585848483838282818180C6
:1018E0000000FF070000F87F4FEA1153A3F5806363
:1018F000D3F11E03A8BFD3F1200C08DB4FF0004248
:1019000042EAC12252EA505232FA03F070470942C9
:101910000BD4102BC4BF0020704703F5787CBCF1BA
:10192000FF3F05D04FF0FF3070474FF00000704789
:1019300070B500F0C3F800BF4992248000207047C2
:10194000F0E7B0FA80F310FA03F10AD0C3F11D03F7
:1019500003F580634FEA41504FEA035202EBD12175
:1019600070474FF000007047DFF848C170B51CEABF
:10197000111E1EBF1CEA13159EEA0C0F95EA0C0FF0
:1019800000F06F8081EA030423EA4C134EEAD47E10
:1019900021EA4C1141F4801143F48013AE44A1FBC1
:1019A000024CA0FB0365AEF17F7E361955EB0C05AA
:1019B000A1FB034C4CF10003A0FB021C16EB0C0630
:1019C000654153F10003094218BF46F0010613F4C4
:1019D000007F0BD14FEA03314FEA0530340341EA6F
:1019E000155140EA16506FF003020AE04FEAC32196
:1019F0004FEAC520F40241EA555140EA56506FF0D3
:101A0000020202EB2E4201EB025585EACE710AD0AA
:101A10005FEA440C18BF24F0004450F1000041F18B
:101A2000000120EAD47040F2FE7C624500D270BD15
:101A3000A84214BF4FF080444FF04044002E08BF2E
:101A40000024BEF1806FA8BFA1F1C041BDE8704085
:101A500080F282804FF0000001F1C04101F00041AE
:101A600070479EEA0C0F0CEA131518BF95EA0C0F8D
:101A700006D04FF0000081EA030E0EF0004170BD69
:101A800000F01CF88900013E00F007B800F009B82A
:101A90004FEA430C5FEA5C5C08D081EA030100F086
:101AA0005BB84FEA410C5FEA5C5CF6D14FF0000096
:101AB000014970470000FF070000F87F0EF1020E99
:101AC0002EF0030E5EF8046B364205D4012A43EB78
:101AD000030515F5001F12D8012841EB010C1CF578
:101AE000001F0CD80ED14FEAD17C15F5001F0CEB6E
:101AF0004C0C0CF1020C08BF4CEBD37C04E04FF013
:101B0000080C01E04FEAD37C0CEB4C0526FA05F6F5
:101B100006F00706B6F1040C06D20EEB860CBDE803
:101B200070404CF0010C6047DFE80CF0090B02023A
:101B30004FF000414FF00000A1F5002170BD1946A3
:101B40001046012851EB010418BFD4F5001484BFDE
:101B5000002001F0004170BD0808A0F500114FEA17
:101B6000310170474FF04070E1EE100A70470000FD
:101B70000000000000000000A506000800000000B2
:101B80000000000000000000BB0C00080000000086
:101B900000000000AD0C0008000000000000000084
:101BA000000000002B0B00080000000000000000F7
:101BB00000000000110B0008000000000000000001
:101BC0000000000000000000000000000000000015
:101BD0000000000000000000000000000000000005
:101BE00000000000A7150008A7150008A7150008A9
:101BF000A7150008A7150008A71500080000000099
:101C00000000000000000000BB0C0008A715000841
:101C1000A7150008AD0C000800000000000000003F
:101C200000000000DD13000873140008000000002D
:101C3000651400086B14000800000000000000009C
:101C4000C50B00080000000000000000410C000867
:101C500000000000210C000800000000070C000834
:101C6000841C00080000002098000000C401000847
:101C70001C1D00089800002068810000E001000899
:101C80002DF9FFFF00000000000000000000000030
:101C90000000000000000000000000000000000044
:101CA0000000000000000000000000000000000034
:101CB0000000000000000000000000000000000024
:101CC0000000000000000000000000000000000014
:101CD0000000000000000000000000000000000004
:101CE00000000000000000000000000000000000F4
:101CF000000000000100710011007200210073005B
:101D000031007400D2307C00E2307D00F2307E0081
:0C1D1000000000000000000000000000C7
:040000050800018965
:00000001FF
